:020000022000DC
:1060000000020020197F0200B57E0200717E0200AE
:10601000C57E0200D57E0200E57E02000000000081
:10602000000000000000000000000000557E02009B
:10603000F57E020000000000097E0200057F0200DC
:10604000CB2E0300B1460300093B0300318302005D
:106050004D830200CB2E0300CB2E0300CB2E03007A
:10606000CB2E0300D5380300DB380300CB2E030012
:10607000CB2E0300CB2E0300CB2E0300CB2E030030
:10608000CB2E030035340300CB2E0300CB2E0300B0
:10609000CB2E0300CB2E0300CB2E0300CB2E030010
:1060A000CB2E0300CB2E0300E1380300E7380300BA
:1060B000CB2E0300CB2E03000000000000000000E8
:1060C000CB2E0300CB2E0300CB2E030069830200EE
:1060D000CB2E0300CB2E0300CB2E0300B1400300D8
:1060E000CB2E0300CB2E0300CB2E030000000000BC
:1060F00000000000CB2E030000000000858302009A
:10610000F7B50D4616461F46044608B901F01EFDB8
:1061100000680DF04DF80023CDE900732A463346A0
:10612000392120680DF0CFF8054620680DF05CF8A5
:10613000281E18BF0120404203B0F0BD30B5002337
:10614000DCB241FA04F5ED0703F10103F8D590F94B
:106150000030A2405A4011404B40037030BD73B52F
:106160000D461646044608B901F0F0FC00680DF033
:106170001FF801230022CDE9003239212A46334697
:1061800020680DF03FF8054620680DF02DF8281E18
:1061900018BF0120404202B070BD2DE9F3411C46FA
:1061A00005460E46174600235FFA83F847FA08F2C1
:1061B000D20703F10103F7D501230DF107023146A0
:1061C0002846FFF79DFFB0B99DF9073004FA08F49F
:1061D0005C4004EA0702534031460DF107022846AD
:1061E0008DF80730FFF7BBFF003818BF0120404291
:1061F00002B0BDE8F0814FF0FF30F9E737B5044653
:1062000008B901F0A3FC0029FBD08B88B3F5807F8F
:10621000F7D84B89B3F5807FF3D8CB790F2BF0D823
:106220000FC984E80F004FF4FA7501230DF107023E
:1062300092212046FFF764FF80B99DF80730AB2B11
:1062400011D18DF805000DF1050280212046FFF7E0
:1062500086FF58B14FF0FF3003B030BD4FF0FF3034
:10626000013DE2D1F8E76FF00100F9E7A3880DF1F5
:1062700006025B42812120468DF80630FFF76FFF52
:106280000028E7D1A37903228F212046FFF785FF5D
:106290000028DFD1E379002B4AD1237AC0228F2155
:1062A0002046FFF77AFF0028D4D1637A0C228F2191
:1062B0002046FFF772FF0028CCD163890DF1070259
:1062C0005B42832120468DF80730FFF748FF002806
:1062D000C0D1012211468DF805000DF10500FFF730
:1062E0002DFFA288003A18BF01220221FFF726FFE6
:1062F000E279003A18BF01220421FFF71FFF6289EB
:10630000003A18BF01220821FFF718FF024680213A
:106310002046FFF724FF00289CD1237B02228D21F9
:106320002046FFF73AFF003818BF0120404293E7AC
:10633000013BDBB23F228E212046FFF72EFF0028D3
:10634000ABD087E713B50C4608B901F0FFFB002975
:10635000FBD0022301AA9421FFF7D2FE20B9BDF899
:106360000430238002B010BD6FF00300FAE713B5CC
:106370000C4608B901F0EAFB0029FBD0002300938A
:10638000ADF804306A4606239621FFF7B9FE50B9EE
:10639000BDF800302380BDF802306380BDF80430C2
:1063A000A38002B010BD6FF00300FAE713B50C46EE
:1063B00008B901F0CBFB0029FBD00023ADF8043075
:1063C00001AA01239C21FFF79BFE20B9BDF80430F0
:1063D000238002B010BD6FF00300FAE710B50C4641
:1063E000FFF7E4FF18B91A23E380012010BD6FF016
:1063F0008B00FBE710B50C46FFF7A4FF18B91A2372
:10640000E380012010BD6FF08B00FBE713B50C4655
:106410006946FFF7ACFF68B9BDF800302380BDF8CE
:1064200002306380BDF80430A3801A23E380032088
:1064300002B010BD6FF08B00FAE7000008B541F222
:10644000336104480BF0B2FD03480BF0EFFD002070
:1064500008BD00BFC4B20300D3B2030010B50849A1
:106460000522044614F0DEF940B106490422204614
:1064700014F0D8F9B0FA80F0400910BD0220FCE712
:10648000E7B2030092BB03001FB59DF81840CDE9A9
:106490000134064B0093002302F094FD0028C1BF95
:1064A000034A13880133138004B010BDCD66020087
:1064B000600500202DE9F0438FB0174606460D46D3
:1064C00013F05EFD7F28024604D9012420460FB058
:1064D000BDE8F083314601A811F0EAFC80460028AF
:1064E000F3D1BDF82A401C4B03992246184614F0FC
:1064F0008DF8BDF8309000F80480B9F1000F0BD092
:10650000164913F0C7FB06994A4613F007FF0346E6
:106510004C44013303F804800F49284611F03CFB3A
:106520000446A8B9EB8A63B9052201990C4814F016
:1065300079F941F2336341F23462002808BF13460F
:10654000EB82079B3B603146034813F0C3FBBDE77A
:106550004FF0FF34BAE700BF62050020D3D9030033
:10656000E7B20300F7B505460E4617461C46184627
:106570000BB113F005FDCDE900403B4680223146CA
:10658000284602F0DFFC03B0F0BD0000F0B50228A1
:10659000C1B00E4605DC096828480BF007FD01254F
:1065A00040E0706803AA04A9FFF784FF054618B10C
:1065B00023480BF03BFDF2E7039B032220A90AA826
:1065C000FFF7D0FF2A460C210AA80CF06BF8706880
:1065D00013F0D6FC044650B301210AA80CF084F84D
:1065E000BDF83430A34207461FD32246B1680B984A
:1065F00014F00CF83C440A9B1248598849BA2246C8
:1066000089B20BF0D3FC1048FFF728FF002300905D
:1066100004AA214620A8FFF737FF002802DC0B4818
:106620000BF004FD284641B0F0BD0948C1E72946FA
:106630000AA80CF059F80446DDE700BFEDB20300EC
:106640001CB3030050B303006205002078B30300BD
:1066500030B3030030B50128C1B00B4605DC096832
:1066600016480BF0A3FC012424E0586803AA04A9EF
:10667000FFF720FF044618B111480BF0D7FCF2E7F2
:10668000039B012220A90AA8FFF76CFF21460AA854
:106690000CF02AF805460B48FFF7E0FE2346009071
:1066A00004AA294620A8FFF7EFFE002802DC0648CE
:1066B0000BF0BCFC204641B030BD00BF93B30300DB
:1066C0001CB303006205002078B303002DE9F041FC
:1066D0000368042B92B005460C46164609D10B6898
:1066E0005948598849BA89B212B0BDE8F0410BF057
:1066F0005DBC062B45D155480BF098FC172202A92A
:1067000020460BF089FF20B1039B13B950480BF0D2
:106710008DFC23684F485B784F495A09022A18BFFD
:10672000014603F01F034D480BF040FCA389002BEA
:106730003AD020460BF03DFEA28938B1282805D07A
:1067400023685B785B09043B012B22D863684448CB
:1067500011460BF02BFC172202A920460BF05CFF20
:1067600000286AD09DF91130002B6BD023681F7868
:10677000039BEBB93B4B1B78D3B93B480BF056FC62
:106780005BE0032BBAD0394812B0BDE8F0410BF002
:106790004DBC114636480BF009FCA1896068002306
:1067A00010220EF07DF8D6E732480BF03FFCD2E71E
:1067B0002C48DFF8C48013F0E3FB2A49024605A801
:1067C00011F076FB98F80030002B39D0002301221D
:1067D0002168204607F03007FFF7C4FE202F01BFD5
:1067E0002268137823F030031370039B9DF8102068
:1067F000013342EA03121721204603930BF052FFA4
:1068000098F800301BB1059920460BF05AFF002183
:1068100020460BF069FF134A174B074698F8000013
:1068200000280CBF10461846FFF718FE00902B6B8F
:10683000206832463946FFF727FE12B0BDE8F081E6
:106840000B9BC4E70D4899E7C9B30300E9B3030004
:106850004DB40300C3B30300BBB3030065B403002E
:1068600087B4030062050020A8B4030034B4030019
:106870006CB3030098B40300E2050020D0B4030019
:1068800010B5044602F0AEFC014620B92046BDE832
:1068900010400BF029BF4FF0FF3010BD074A0346F0
:1068A000106810B94FF0FF307047C268127A9A42F0
:1068B00001D00068F5E70EF029BD00BF044C0020B0
:1068C0002DE9F8430F4615461E4602F055F9041E01
:1068D00019DDDFF83890736859F82380B8F1000F9C
:1068E00011D0404613F04CFB2D1BA84202460AD2A1
:1068F0001FB14146381913F089FE736859F8230017
:1069000013F03EFB04442046BDE8F8838CDC030012
:1069100000220C210BF0C6BE2DE9FF4104464523A1
:106920001646884602F05EFC2046FFF7F1FF012183
:1069300020460BF0D9FE02A9054682206768FFF7C2
:10694000ADFF002808DA8423324641462046FFF78F
:1069500097FF04B0BDE8F081BDF9082082EAE27437
:10696000A4EBE2746423A4B2B4FBF3F103FB11447F
:10697000009492FBF3F3711B024A38460BF036FB8E
:106980002844E6E7EBB403002DE9F3414523044630
:1069900016460F4602F026FC2046FFF7B9FF0121FC
:1069A00020460BF0A1FE694605468920D4F80480F4
:1069B000FFF774FF002808DA842332463946204660
:1069C000FFF75EFF02B0BDE8F081BDF90030034A79
:1069D000711B40460BF00AFB2844F3E7F4B40300B4
:1069E0002DE9F3414523044616460F4602F0FAFB13
:1069F0002046FFF78DFF012120460BF075FE69460A
:106A000005468420D4F80480FFF748FF002808DA00
:106A10008423324639462046FFF732FF02B0BDE8F4
:106A2000F081BDF90030034A711B40460BF0DEFADD
:106A30002844F3E7FAB403002DE9FF410446452357
:106A40001646884602F0CEFB2046FFF761FF012183
:106A500020460BF049FE02A9054683206768FFF730
:106A60001DFF002808DA8423324641462046FFF7FE
:106A700007FF04B0BDE8F081BDF9082082EAE274A6
:106A8000A4EBE2746423A4B2B4FBF3F103FB11445E
:106A9000009492FBF3F3711B024A38460BF0A6FAFE
:106AA0002844E6E701B503002DE9FF4104464523EC
:106AB00016460F4602F096FB2046FFF729FF0121FC
:106AC00020460BF011FE02A905468520D4F804806B
:106AD000FFF7E4FE002808DA8423324639462046D0
:106AE000FFF7CEFE04B0BDE8F081BDF90C30019394
:106AF000BDF90A300093044ABDF90830711B4046C5
:106B00000BF074FA2844EDE709B5030038B50446E4
:106B1000452302F067FB2046FFF7FAFE01212046DD
:106B20000BF0E2FD044905464FF49D72606813F0D6
:106B30006DFD05F59D7038BD1AB5030070B5452390
:106B400004460D46164602F04DFB2046FFF7E0FED8
:106B5000012120460BF0C8FDA3891E2B0FD90D4B38
:106B6000626803F11C0153F8044B42F8044B8B425A
:106B7000F9D119889B78118093701F3070BD064839
:106B80000BF054FA324629462046A023BDE8704057
:106B9000FFF776BE55B6030030B3030038B50446A0
:106BA000452302F01FFB2046FFF7B2FE01212046DD
:106BB0000BF09AFD044905469122606813F026FD0A
:106BC00005F1910038BD00BF75B60300F7B5036845
:106BD0005B7803F01F03013B01249C40A4B2012C0D
:106BE00005460E46174604D0042C14D0002003B0EE
:106BF000F0BD452302F0F6FA2846FFF789FE21464C
:106C000028460BF071FD144B04461988686801F0A2
:106C1000C5FD2044EBE78389052B16D800241A46CE
:106C2000416800946846ADF8044013F0EFFC21463B
:106C30000A22684613F054F9074B3A461880314649
:106C400044232846FFF71CFED1E7802303B0BDE8AC
:106C5000F040FFF715BE00BF60050020014802F0BC
:106C600059B900BF0002002000B50948A1B00421B5
:106C700000F09AFCFFF7F2FF06480BF0D7F9064840
:106C80000BF0D4F98022694600200EF0ABFCF9E746
:106C9000640600208FB70300A1B7030070B5064E4D
:106CA000064CA41BA4080025AC4200D170BD56F8C8
:106CB000253098470135F7E7C0E70300ECE703000C
:106CC00013B500200DF0DEF9014608B900F03EFFD3
:106CD000084C204611F06EFA204612F0F9F9064BE6
:106CE0000648009401224FF4806111F06FFA02B05F
:106CF00010BD00BF84060020BFB703003408002089
:106D000007B51346002200920A46017900680DF08B
:106D100083FE003818BF0120404203B05DF804FB39
:106D200007B51346002200920A46017900680DF06B
:106D30007DFE003818BF0120404203B05DF804FB1F
:106D400030B504468BB000B109B900F0FFFE07C9A9
:106D500084E807000CF02CFA0DF10F02D021204638
:106D6000FFF7CEFF38B120680CF03EFA6FF0010556
:106D700028460BB030BD9DF80F30582BF3D1B6220A
:106D8000E0212046FFF7CCFF00283FD10DF10F0294
:106D9000F3212046FFF7B4FF002837D19DF80F30CC
:106DA000002BF3D10193182300932179206804ABC1
:106DB00088220CF088FA48BB049BE360059B2361A2
:106DC000069B6361079BA361089BE361099B627952
:106DD0002362A379F5211A4320468DF80F20FFF78F
:106DE0009FFF98B9627A237A920042EA4312E379CC
:106DF0001A43D2B2F42120468DF80F20FFF790FFFE
:106E0000054618B920680CF0EFF9B1E720680CF0DE
:106E1000EBF94FF0FF35ABE71FB5044608B900F0BA
:106E200095FE00680CF0C4F9E379032B1AD0627A5E
:106E3000237A920042EA431242F00102D2B2F421D4
:106E400020468DF80F20FFF76BFF00283DD10DF194
:106E50000F02F3212046FFF753FFB0BB9DF80F3020
:106E60001907F4D406230022CDE9003204F13403DB
:106E700021792068F7220CF026FA30BB20680CF04C
:106E8000B3F994F8383094F8372094F839101B018E
:106E900043EA0233A28943EA1111C2EB13135200F1
:106EA000C2EBD102B4F90E105B434A43B4F910109F
:106EB0001B134B439B1303EBE220206300EB80008A
:106EC000803040F30F2004B010BD20680CF08CF926
:106ED0000048F8E70080FFFF2DE9F041044608B9BB
:106EE00000F034FEFFF798FF94F8350094F8343042
:106EF000226BB4F91A60B4F91CC0000140EA0330F7
:106F000094F8363040EA1310D317B2F5FA3243F151
:106F1000FF33A2FB027102FB03F501EB450106FB07
:106F200003FEF51702FB05EEA6FB0265AE444FEA31
:106F3000EC780CFB01F54FEA4E4E4EEAD63E07FBCD
:106F400008557604ACFB07C816EB0C064544B4F9AB
:106F500018C045EB0E0505EBCC05B4F914C04FEA9B
:106F6000EC7E0CFB03F302FB0E33ACFB02C21344BA
:106F70001B0343EA1C534FEA0C32B4F916C04FEA24
:106F8000EC7E0CFB01F107FB0E11ACFB07C739448B
:106F90004FEA1C2C678A4CEA016C12EB0C0203F5D9
:106FA000004343EB2123A2FB072107FB0311CB176F
:106FB0004A1053EA610150D0C0F5801000F0004142
:106FC00041EA5001C007801B61EB050140F63545E1
:106FD000A0FB050605FB016112F024FC420B0746ED
:106FE00042EAC14206464813B4F922305043A2FB9C
:106FF000022505EB40054FEAE37C5D4302FB0C559F
:10700000A3FB02321544B4F9202002FB01F04FEA41
:10701000E27C0CFB0700A2FB07273844D20C42EAB3
:1070200040325B0E921943EAC51341EBE0419B18D5
:10703000B4F91E204FEAE27441EB65611B0A24019A
:1070400044EA127443EA01631201D01844EB21248C
:10705000000A40EA0460BDE8F0814FF0FF30FAE733
:1070600010B50C46FFF7D8FE4FF60263E380208090
:10707000012010BD13B51723CB800C46FFF72CFF62
:107080000122019001A920460DF048FD012002B027
:1070900010BD41F6C813584348BF00F2FF3040F31B
:1070A0008F207047704700004FF080435722C3F88D
:1070B0001C25BFF34F8F0549054BCA6802F4E062F7
:1070C0001343CB60BFF34F8F00BFFDE700ED00E03F
:1070D0000400FA0570B50144044618468C4200D1FC
:1070E00070BD14F8013B0825584046B24300002EFD
:1070F000D8B2B8BF5040013DF7D1EFE72DE9F047D6
:1071000004460E461746EFF3108872B60568C5B9F7
:10711000DFF88890051DD4E90331A2689A1A8A42E3
:1071200022DC1D4A12883280581C6269E0600B40E4
:1071300096E8030002EBC30383E8030088F310889A
:1071400010E055F80C390360D1E900012B6983E8A0
:10715000030028460C2100F007FB687988F31088AB
:1071600000F03EFB012714E08FB1D9F800A00921FF
:10717000504600F0F9FA5146284600F0B7FB88F374
:10718000108800F093FBEFF3108872B6C3E788F322
:1071900010883846BDE8F087080D00207C0C0020E0
:1071A00070B50B4604461046EFF3108672B6D4E96C
:1071B000022191421DD0501CA06020696169656860
:1071C000024001EBC20292E8030083E803001DB90C
:1071D00086F31088012070BD55F80C39636028468D
:1071E0000C2100F0C1FA687986F3108800F0F8FAF3
:1071F000F0E778B1094A156809212B61284600F0AB
:10720000B3FA2946204600F071FB86F3108800F09F
:107210004DFBDFE786F31088DDE700BF7C0C002024
:107220000346D0E9072010B59C69141BA04201DA7F
:10723000002010BD541C0240DC61F9D4586A00EBF8
:10724000C20203C982E803001A896FEA42426FEA68
:1072500052421A81184600F013FC0120E9E70000B1
:1072600008B50E4B53F82130A3B11A79042A0BD17B
:1072700003C81A6982E8030018460C2100F074FA6A
:10728000074B0120186008BD01461846BDE80840BC
:10729000FFF7C6BF4FF0FF30F5E700BF840C0020BA
:1072A000780C00202DE9F0411D46294B53F8214070
:1072B000284B1B880380064690462CB985F310881E
:1072C0004FF0FF30BDE8F081234B1F682379042B7A
:1072D00034D001462046FFF7A3FF78B185F310882C
:1072E0003B79062B02D01D4B1B682BB11C4B4FF07A
:1072F00080525A60BFF36F8F0120E3E7B8F1000FAF
:1073000002D185F31088DDE73B793E61062B14BF7F
:1073100005210621384600F027FA04F11400394609
:1073200000F0E4FA23896FEA43436FEA5343238171
:10733000204600F0A5FB85F31088D7E7D0E90001CF
:10734000236983E803000C21204600F00DFAF2E7E0
:10735000840C0020080D00207C0C0020780C0020FC
:1073600000ED00E0F8B50246EFF3108672B6344D3A
:107370002B680BB900F0EAFB5F6A002F59D0D3E904
:107380000640A04255D0601C9861186A044039B983
:10739000596929B9611C03D186F310882046F8BDCC
:1073A000002C4ADB07EBC40103C982E803005969DA
:1073B00099B9002C2CDA0421184600F0D5F986F38F
:1073C0001088204B4FF080525A60BFF36F8F2B68AC
:1073D0001B79042BCED00124E0E70D46002C55F894
:1073E0000C1959610CDBD3E907209969511A8842BD
:1073F000A9BF511C4FF0FF320240D96107EBC20216
:107400002B6993E8030082E803002B79062B02D155
:1074100086F31088DFE7002328462B610C2100F05B
:10742000A3F9687986F310880E28D4D800F0D8F92B
:10743000D1E74FF0FF340029AAD01A61B7E700BFA7
:107440007C0C002000ED00E010B50146EFF3108445
:1074500072B6054B1B880380044B1868FFF7E0FEEB
:1074600084F3108810BD00BF080D00207C0C0020A4
:1074700021230380FFF7F4BEEFF30583DBB20BB1EA
:10748000FFF7F6BF064B1B881BB2994201D1FFF7ED
:10749000DBBFEFF3108372B60122FFF703BF00BF1B
:1074A000080D002010B4EFF3058212F0FF0203D0A4
:1074B0005DF8044BFFF7DCBF074B1B881BB29942FA
:1074C00003D15DF8044BFFF7BFBFEFF3108372B633
:1074D0005DF8044BFFF7E6BE080D0020104B1B883B
:1074E0001BB29A422DE9F04106460C46154601D1E1
:1074F00000F02CFBEFF3108872B60A4B1F680621D0
:10750000384600F031F996E803003C61434684E8D0
:107510000300012229462046BDE8F041FFF7C2BE24
:10752000080D00207C0C002038B5EFF3108572B6F2
:107530000F4BB0F9002053F822400CB900F006FBC5
:107540002379062B04D085F310884FF0FF3038BD27
:1075500003C9236983E8030020460C2100F004F9E5
:10756000607985F3108800F03BF90120EFE700BF58
:10757000840C00200021FFF7F5BE0121FFF7F2BEC9
:1075800008B5EFF3108272B6064B1B680BB900F01A
:10759000DDFA586A10B1D3E90630C01A82F31088B8
:1075A00008BD00BF7C0C002008B5064B4A1E1B68B6
:1075B0001140586201D000F0C9FAC3E906111A62FD
:1075C00008BD00BF7C0C002070B504460846EFF3F0
:1075D000108672B6236833B94FF0FF33236086F309
:1075E0001088012070BD11B986F31088FAE70F4B9F
:1075F0001D680DB900F0AAFA0321284600F0B4F87E
:10760000236801330DD105F10C0323600023EB60E7
:1076100086F31088064B4FF080525A60BFF36F8F8D
:10762000DFE72946204600F061F9F1E77C0C0020F5
:1076300000ED00E038B50446EFF3108572B600683F
:1076400010B985F3108838BD431C02D10023236094
:10765000F7E750F80C3923600C2100F085F8236817
:1076600013B94FF0FF33236085F31088034B4FF0BD
:1076700080525A60BFF36F8FE5E700BF00ED00E076
:1076800008B503790B2B04BF0C230371836A1A68B6
:10769000934208D0B0F9061003480AF087FC03496A
:1076A0000D2000F08BFA08BDC5B70300F4B7030046
:1076B000026810B54AB113688B4207D19A4202D1D1
:1076C0000023036001E01B68136010BD13461B68B4
:1076D0001C68A14202D09A42F9D1F6E7002BF4D0FF
:1076E0000A681A6002689142EFD1EAE770B5184C57
:1076F000184E2368356843BB15B12846FFF7C0FF15
:1077000000F0B0FB2368002BFAD00020124B0022BF
:107710001A602368114AB3FA83F352F823301C68C5
:107720000C3C0B23AC4223710DD008B1FFF7A8FF2E
:107730000B4BA16AB4F906201A801F31094A346044
:10774000022000F0D7FA204670BD2846DEE700BFD1
:10775000340C00207C0C0020780C0020380C002019
:10776000080D00200800061670B50A2903790446A2
:107770000D461AD90A2B14D84279174B00F10C0187
:1077800053F8220078B10068E06053F822000160ED
:1077900043F8221011494FF00043D3400A681343C5
:1077A0000B60257170BDE160F2E70A2BF9D94079D1
:1077B000094E04F10C0106EB8000FFF779FF6379B5
:1077C00056F82320002AECD104494FF00042DA4059
:1077D0000B6823EA0203E3E7380C0020340C002096
:1077E0000B4B1B685A791B790A2B01D990420DD299
:1077F000EFF30583DBB21BB1064B01221A60704721
:10780000054B4FF080525A60BFF36F8F704700BF37
:107810007C0C0020780C002000ED00E008B5EFF3B0
:10782000108372B6094B0A4A1B880A4D1BB200240A
:1078300042F82340084A286813682146013B136038
:10784000FFF792FF2C6000F0C9FA00BF080D00207E
:10785000840C00207C0C0020800C0020431E9BB276
:107860001F2B05D8034B53F8200010B1C06A704796
:1078700000207047840C002010B5EFF30583DBB2C5
:107880007BB9EFF3108472B6064B02211868FFF73C
:107890006BFF84F31088044B4FF080525A60BFF3A3
:1078A0006F8F10BD7C0C002000ED00E0EFF3108026
:1078B00072B60B4B1B681A790A2A07D95A79094BF9
:1078C00053F8221011B1096843F8221080F3108890
:1078D000054B4FF080525A60BFF36F8F704700BF67
:1078E0007C0C0020380C002000ED00E038B50B794E
:1078F0000A2B01D900F02AF94C7901F10C02034658
:10790000006818B110F8075CA542F8D9C8601A6081
:1079100038BD03460144814202D90268824201D047
:10792000C01A70470430F6E70F2A2DE9F84F0546D4
:107930008A469046994633D810F003031DBFC3F121
:107940000402043B5B180B46A3F1340318BFAD18C7
:1079500033F0030324D419F0080F05EB030416D009
:107960002D60EFF3108B72B6274A0126114652F8AC
:10797000047FC7B10136212EF9D18BF310886FF047
:107980008A063EE012600432A242FBD3E9E72A46AF
:10799000FAE702212046FFF7E7FE8BF3108830E07C
:1079A0006FF015062DE036B22A4641F82640DDE993
:1079B0000A01E68000F0C4F90C9B144AE3624FF020
:1079C000FF33C4E9083713682060013319F0010F51
:1079D000C4E90377C4E90577A562C4F830A084F848
:1079E00005802771E7611360D3D10C212046FFF792
:1079F000BBFE19F0040FD0D18BF310884046FFF77F
:107A0000EFFE3046BDE8F88F840C0020800C00208B
:107A10000C2808B503D8034B53F8200008B900F030
:107A200095F808BD3CDD030010B50346EFF3108464
:107A300072B6028902EA010022EA01021A8184F385
:107A4000108810BD0C4A034610B51068EFF310847F
:107A500072B6028913420CD103610721FFF784FE3D
:107A600084F31088054B4FF080525A60BFF36F8F3C
:107A700010BD84F31088FBE77C0C002000ED00E0D3
:107A800010B50379048A072B03D0082B0CD00024EF
:107A900008E003891C4005D00C21FFF765FE054B6B
:107AA00001221A60204610BD03899C43EFD10124B6
:107AB000F2E700BF780C002038B5054B1D6804467E
:107AC000FFF7C0FF21462846BDE83840FFF7ACBFAE
:107AD0007C0C002010B5EFF3108472B60389027994
:107AE0001943072A038A018104D0082A13D084F39A
:107AF00010880FE01942FAD00C21FFF735FE074B32
:107B000001221A6084F31088054B4FF080525A60AE
:107B1000BFF36F8F10BD8B43E9D1EDE7780C0020E8
:107B200000ED00E008B5EFF30583DBB243B9EFF3F6
:107B300010832BB904480AF079FAFFF79DFEFCE7A1
:107B40000149032000F03AF865B8030008B5714612
:107B500002480AF02BFAFFF7E5FF00BF77B80300F1
:107B600008B5FFF79BF803480AF060FAFFF77CF8C6
:107B7000002008BD80B803001FB5EFF3108372B674
:107B8000074B029300230193064B00930722042323
:107B90004FF4C0610448FFF7C7FE00F01FF900BFB3
:107BA000A8B80300617B02000A0D002008B50CF0A4
:107BB00065FFBDE8084010F01FB8704708B50D4BD1
:107BC0001A680C467AB901221A60FFF7F6FF2146BF
:107BD00009480AF0EBF90DF0BBF80A200AF01AFA8E
:107BE00006480AF023FAEFF3108372B600F092F819
:107BF000FFF75AFA0C130020ADB80300C9B8030010
:107C000070B50D4600210446FFF7DEFC0D4E70B93D
:107C1000BFF35B8FE288BFF35B8F338812B21BB276
:107C20009A4204D06DB901212046FFF7CDFC33887C
:107C3000BFF35B8FE380BFF35B8FA3880133A38027
:107C4000012070BD080D00200021FFF7D9BF000002
:107C500008B50F4BBFF35B8FC188BFF35B8F1B88E9
:107C600009B21BB2994201D0FFF770FF8388002B45
:107C7000FAD0013B9BB2838043B9BFF35B8FC380D3
:107C8000BFF35B8FBDE80840FFF7D4BC08BD00BF61
:107C9000080D00200C4B0D4A10B540219A600C4C89
:107CA000E02283F82220D9770022A0180132302A5E
:107CB00080F80013F9D11A6942F010021A615A696A
:107CC00042F400725A6110BD00ED00E00060020055
:107CD00000E100E0064BD3F8942042F00502C3F81F
:107CE00094205A6A42F480325A620020704700BFE2
:107CF00000ED00E0064B21F01F0142F00102C3F845
:107D00009800C3F89C100020C3F8A020704700BF63
:107D100000ED00E008B5EFF30581C1F3080119B1EA
:107D2000054810390AF042F9044BD3F8F030DB076C
:107D300000D500BE08BD00BFD6B8030000ED00E0CE
:107D40001A4422F0030210B54FF0773442F8044C85
:107D5000540758BF4FF08834A2F104035CBF42F8C7
:107D6000084CA2F108034FF0807243E902020D4A69
:107D700043F80C2C0020032243E9052043F8201C83
:107D800001220224194643E907246FF0020241F858
:107D9000242D0B2241F8042D013A032AFAD1A3F134
:107DA000440010BD1D780200054B064A06481968BC
:107DB000914201D1834201D3C01A70470433F6E7E0
:107DC00000000020FEE7FEE700020020EFF308803D
:107DD0007047000000487047000000200023E1EEDB
:107DE000103AEFF3148323F0040383F31488BFF3F2
:107DF0006F8FEFF3108362B6024B4FF080525A60E0
:107E0000BFF36F8F00ED00E0114910B50C6872B63A
:107E1000FFF76CFC62B6A04208BF10BD2146BDE86A
:107E2000104049B1EFF309821EF0100F08BF22ED98
:107E3000108A22E9F04F0A600068B0E8F04F1EF0A7
:107E4000100F08BFB0EC108A80F30988704700005B
:107E50007C0C0020024B4FF080525A60704700BFEC
:107E600000ED00E030BF62B6BFF36F8F72B67047AF
:107E70000D4B0E4A0E496846904203D8984201D9EC
:107E8000002102E009468D4601210420724602428B
:107E900002D1EFF3088001E0EFF309802DE9F00F44
:107EA0006B4600F08FF800BF58010020000004204E
:107EB0000002002008B502490620FFF77FFE00BF40
:107EC000E5B8030008B502490520FFF777FE00BFBB
:107ED000F1B8030008B502490820FFF76FFE00BFA4
:107EE00004B9030008B502490920FFF767FE00BF87
:107EF00016B9030008B502490A20FFF75FFE00BF6C
:107F00002AB9030008B502490B20FFF757FE00BF4E
:107F10003CB9030070477047204AD2F8883043F4D8
:107F2000700310B5C2F88830FFF7F4FF6A461C4BA7
:107F30001C491C4693422DD31B4B1C48DA1C121AB9
:107F4000C11E22F00302994288BF0022184912F094
:107F50005DFB184B1848DA1C121AC11E22F00302EE
:107F6000994288BF0022002112F076F824B1134A0A
:107F700013490120FFF7BEFEFFF7ACFEFFF7CBFF72
:107F800000F032F9FFF78EF811F0B6FFBDE81040AF
:107F9000FFF7F2BD43F8041BCCE700BF00ED00E0A3
:107FA00000000020FEE7FEE7600500200002002040
:107FB000F4E80300D05000206005002008000616F9
:107FC0001F0000202DE9F04F9A46564B8FB0934684
:107FD0009A6B03925A6B0492D3F82880DA6A05925E
:107FE0001A6BDB6B0793504B06921A684F4B9A4201
:107FF00004460E4602D04E480AF018F8002E62D011
:108000004C480AF013F84C4B4C48198809B209F057
:10801000CDFF00252F464A480AF008F84146494856
:1080200009F0C4FF0599484809F0C0FF0699474880
:1080300009F0BCFF0799464809F0B8FF18F4004F53
:1080400003D00399434809F0B1FF18F0800F03D023
:108050000499414809F0AAFF404809F0E7FF404869
:10806000594609F0A3FF002E29D11BF0080F53D069
:10807000314B1E8836B23046FFF7F0FB31460246E0
:10808000384809F093FF384809F0D0FF394637489F
:1080900009F08CFF6946364BC91A03D53548494269
:1080A00009F084FF20468268C36801698C464169F3
:1080B0008E46AD46514691E8F00F416800682E4962
:1080C0000720FFF77BFDD4E90230D4E90679D4E933
:1080D000001208902069099060690A9019F4007FE5
:1080E00026480B91CDE90C230CBF04F1200504F1C7
:1080F000240509F09BFF089B0B9900932048DDE9BC
:108100000C2309F053FFDDE90912CDF800903B463E
:108110001C4809F04BFF7EE7217F1B48103909F00E
:1081200045FFB0E700ED00E000000020FEE7FEE7BD
:108130004AB9030060B90300080D00208FB903009D
:1081400039BA030042BA030052BA030062BA03000C
:1081500072BA030082BA030092BA0300A2BA030003
:10816000A7BA0300B9BA0300F8BA030029BB030099
:108170005801002051BB03007EBB0300A3B90300DC
:10818000BEB90300FBB90300D2BA0300BFF34F8F9F
:108190000549064BCA6802F4E0621343CB60BFF3A3
:1081A0004F8F00BFFDE700BF00ED00E00400FA05BF
:1081B0004FF0704393F8E02F062A12D1D3F8E40F62
:1081C00010F00F000DD1D3F8E82F02F0F002302AA2
:1081D00008D1D3F8EC3F13F0F00F0CBF01200020C2
:1081E000704700207047000008B5FFF7E1FF30B18D
:1081F000134AD2F8FC3023F08073C2F8FC30FFF74A
:10820000D7FF20B14FF080430322C3F8A025FFF72A
:10821000CFFF30B14FF080430022C3F80C21C3F8E8
:10822000102100F0BDF8074B0122C3F84025FFF7ED
:1082300031FDFFF7BBFCBDE808400CF006BC00BFF9
:1082400000ED00E000E00140044B1B682BB1044B43
:108250004FF080525A60BFF36F8F7047780C002048
:1082600000ED00E008B50C4B98420CD0B0F1402F67
:108270000BD003F50033984209D003F540439842F0
:1082800007D0FFF763FC002008BD0120FCE70220B7
:10829000FAE70320F8E700BF0030004038B50D468C
:1082A0001446FFF7DFFF0A4B43F82050094B43F811
:1082B0002040094B1B56002B08DB0122590903F013
:1082C0001F0302FA03F3054A42F8213038BD00BF0C
:1082D000301300202013002070DD030000E100E0D7
:1082E000FFF7DCBF70B50E461546FFF7BBFF04462F
:1082F0000648012100EB8400FFF766F9044B43F8C0
:108300002460044B43F8245070BD00BF10130020BC
:10831000301300202013002008B5FFF7A3FF034B04
:1083200003EB8000BDE80840FFF784B9101300207C
:1083300008B5044A044B10681B689847BDE808401C
:10834000FFF782BF201300203013002008B5044A35
:10835000044B50685B689847BDE80840FFF774BF5E
:10836000201300203013002008B5044A044B906805
:108370009B689847BDE80840FFF766BF20130020C0
:108380003013002008B5044A044BD068DB689847D6
:10839000BDE80840FFF758BF20130020301300202D
:1083A00070470000EFF3108172B6094A1368013379
:1083B000012B136009D14FF080420020C2F8000168
:1083C0001360D2F80031002BFBD081F31088704786
:1083D00044130020094A08B513680BB9FFF7B6FB30
:1083E000EFF3108172B61368013B13601BB94FF0B5
:1083F000804301225A6081F3108808BD4413002095
:10840000114A38B51378EBB94FF08044C4F81835E9
:10841000C4F804310123A360D4F80431002BFBD04D
:1084200001251570FFF7BEFF0023C4F80C314FF093
:1084300080422561D2F80C31002BFBD0BDE83840DA
:10844000FFF7C8BF38BD00BF4013002009F041BA94
:10845000D0E902301847000070B50E4615460021DD
:108460001022044611F0F8FD024BE560C4E9013624
:1084700070BD00BF518402000346006838B1026835
:10848000904219BF136803600021196010467047BD
:1084900008B500B109B9FFF759FB4B68002BFAD0BA
:1084A000EFF3108272B60B6833B903686BB11B68C7
:1084B0000B60036819600160406882F3108830B176
:1084C000BDE808400121FFF705BB0960F3E708BDDF
:1084D00010B5EFF3108472B6FFF7CEFF84F3108867
:1084E00008B10023036010BD2DE9F0410D4604469C
:1084F00000B109B9FFF72AFBEFF3108872B6002725
:1085000026467368002BF5D03046FFF7B5FF50B90B
:108510000137BD4206F10806F3D188F31088012027
:10852000FFF7CAFAE8E70022026088F31088BDE886
:10853000F081D0E90501FFF7ABBF000001600349FE
:10854000C0E90523C0E90310704700BF338502006E
:108550000A4619B9D0E90501FFF79ABF011D006865
:1085600010F0C5BF0146006810B1043110F0A6BF7D
:108570007047000038B58569044685B10A4B186814
:10858000436901330CD010F05CFF23696A68C11A9B
:108590008A4226BF9B181B1A00236B60206138BDDE
:1085A00083685B689847F0E79CE603008369084AA4
:1085B00010B5044610682BB15A68214610F097FF99
:1085C000206110BD2146BDE8104010F077BF00BF0C
:1085D0009CE603008369002210B504465A60A06936
:1085E00030B1436823B90368A36163699847F6E72C
:1085F0002046BDE81040FFF7D9BF000070B5054622
:108600000C46EFF3108672B6FFF7B4FF05F11800C1
:108610000368BBB923600460AB69A34206D10F4B6A
:1086200062681868294610F062FF286186F3108896
:108630000B4B1B682BB10B4B4FF080525A60BFF3B2
:108640006F8F70BD61685A68914203D3891A616067
:108650001846DDE7521A23605A60DCE79CE6030007
:10866000780C002000ED00E070B504460D46EFF3F5
:10867000108672B6FFF77EFFA36904F118022BB9CA
:108680002046FFF793FF86F3108870BD9D4202D00D
:108690001A461B68F3E72B681360002BF0D05A686A
:1086A00069680A445A60EBE7034B4161C0E9023054
:1086B00000238361704700BFD585020058B103785D
:1086C00043B1013810F8013F0BB901207047303B2E
:1086D000092BF7D90020704738B1054B0A0901F082
:1086E0000F019A5C5B5C027043700220704700BF10
:1086F00074DD0300F8B50D465700064610B18C181E
:10870000A54201D13846F8BD304615F8011BFFF7E8
:10871000E3FF0644F4E7F8B50E465700054610B1EE
:108720008C18B44201D13846F8BD284614F8011D12
:10873000FFF7D2FF0544F4E703461A4601331178E8
:108740000029FAD1101A704707B5042201910DEBE8
:108750000201FFF7E0FF03B05DF804FB0E4A91420F
:1087600030B5034616D80A22012014468A420ED993
:1087700063B103440A25B1FBF5F405FB1412303252
:1087800003F8012D0A46092A2146F4D830BD624378
:108790000130EBE70A20EBE7FFC99A3BFFF7DEBFAA
:1087A000002910B50B464FEAD17404DA10B12D221E
:1087B00000F8012B5942FFF7D1FF204410BD2DE9ED
:1087C000F043161E85B004460D4604D105B0BDE841
:1087D000F043FFF7E5BF0CDDFFF7E2FF054624B1EC
:1087E00032463021201811F037FCA81905B0BDE839
:1087F000F08381EAE171A1EBE57101A8FFF7AEFF1B
:10880000002DC6F10009804615DA54B32D232370DC
:108810000127C1450ADBC6F10105A5EB080524B116
:108820002A463021E01911F017FC2F442CB907EB30
:108830000805681CDAE70027EBE708EB0705424666
:1088400001A9E01911F0E2FE2E4463191A1BB2428D
:1088500002D22E23A355ECE713F8012C03F80129CB
:10886000F4E781454FF00107D5DAE0E7FFF7A7BF4E
:1088700010B5034601440A2400208B4200D110BDEC
:1088800013F8012B303A092AF9D804FB0020F4E749
:1088900038B5064B1B6804460D46986811F0DCFCA1
:1088A00029462046BDE838400FF0BCB9000500203D
:1088B00007B5014601A8FFF70FFF022101A8FFF746
:1088C000E7FF03B05DF804FB07B501466846FFF714
:1088D0003BFF08216846FFF7DBFF03B05DF804FBB0
:1088E00010B50446FFF728FF01462046BDE81040BA
:1088F000FFF7CEBF88B1E9B1002340EA0102D207F9
:108900000DD5C2070FD5CA070FD5814222BF0A462F
:1089100001461046421A0AD199400846704740085D
:1089200049080133E9E74008EBE74A0801460846F1
:108930001146E8E70146F0E72DE9F84306460D4603
:1089400014460AB9FFF702F911462846FFF7D2FF8D
:10895000A042F7D8A84239D8B5FBF0F1B4FBF0F249
:108960000025B1FA81F44FF0004EC4F120002EFA38
:1089700004FEC4F15F0C2B462C462F46DB1847EB58
:10898000070811EA0E0F18BF43F00103934278F174
:10899000000947464FEA44044FEA5E0E0FD39B1A84
:1089A00068F1000744F00104002C0BDA3B4300D0CF
:1089B0000134C0F1200333713460BDE8F883002C2A
:1089C000F2D1013801356545D8D1EFE700200446E2
:1089D000EFE700000D4A10B5D2F83C4100230360D8
:1089E0001CB1D2F84441A14207D0D2F860315BB14A
:1089F000D2F86831994207D101235B4203F0240386
:108A000003F59E731A44026010BD00BF18020020D7
:108A1000F8B5054616460C4669B108B9FFF796F851
:108A200003688B42FAD8426803EB02129142F5D2F6
:108A3000CC1A241101346B68A34201D800200AE04B
:108A40002868314600EB0410270109F08DFB00284F
:108A5000F0D128683844F8BDF0B593B015462F23FF
:108A6000009306460C46402302AA0B21284609F033
:108A7000A3FC00281BDD2B685B7803F01F03013B80
:108A800001259D400023ADB223600227216802AA80
:108A90003046FFF7BDFF206010B9384613B0F0BD77
:108AA00083881D424FF00107F0D00027F5E7022729
:108AB000F3E7000070B5164CA36805460E4683B177
:108AC000E36801330BD104F110035B88B34208D192
:108AD000104829460FF076F818B1002314E02369F6
:108AE000F3E7236F0BB9002070BD636F013314BF30
:108AF000A36F094B5B88B342F5D1084829460FF0B4
:108B000061F80028EFD068230833E018ECE700BFD5
:108B10001802002034020020900200209C02002055
:108B20001FB514461A460378012B0AD10023CDE95C
:108B300001314068069B039401A907F07EFA04B056
:108B400010BD4FF0FF30FAE70A4B10B50446186825
:108B5000436901330AD010F074FC20F07F42626553
:108B600020460621BDE8104009F09CBD83685B6883
:108B70009847F2E79CE603002DE9F0411C460646C3
:108B800000680D46904611F0FBF9238903F00103BC
:108B900083F001040234074604449DB1444516D8CD
:108BA0009BB92C232B7001233C22EA5403F10108CA
:108BB00031683A4605EB080011F028FDE9193E231B
:108BC00001F808302046BDE8F0810023ECE74FF0C3
:108BD000FF30F8E71FB54268002A034611DB8268C0
:108BE0007AB11068516801AC03C49068002111701B
:108BF00001AA044603CA4FF0FF329860D9601C6195
:108C00005A6004B010BD30B50368013B012B97B02A
:108C100004461CD8C56A042303609DB1502200217C
:108C20000DEB030011F018FA4FF0FF331593636852
:108C3000013314BFA36804F10803009300226946BE
:108C40002046A8472046FFF7C5FF0023236017B042
:108C500030BD43685A1C012A13B5044605D8204686
:108C600002B0BDE81040FFF7CEBF013B436040F6C5
:108C7000B831C3F104034FF4FA60994098400CF006
:108C800007F9014604F13400FFF762FC2368022B68
:108C90000BD000230093D4E9021204F1140304F171
:108CA0006000FFF73DFF0028D9DD02B010BDF8B528
:108CB00004682568002306460F4603602DB1204650
:108CC0000EF080FF4FF0FF3538B9A36943B1183477
:108CD000394620460EF076FF00B134602846F8BDD4
:108CE0000125FBE7014B0360FFF7E1BFF402002021
:108CF00010B586B01222002101A811F0ADF90423AD
:108D0000009341F23363ADF8163000231A460E4843
:108D1000694607F0ADF800284FF0000310DB0B4A5E
:108D20000B4C12680848C4E900322146094A0EF08B
:108D30007FFE01212046FFF7D7FB43689847F8E7FD
:108D4000184606B010BD00BF481300207C0C002060
:108D500090140020499202002DE9F843184C064671
:108D60000F46154604F1D009A368FBB1E36801334F
:108D700014BF216904F1100104F108080B7803F015
:108D80000F03AB4212D12A460431384611F048FF96
:108D900060B9314604F11C000EF014FF58B9E369C4
:108DA000042B0BD194F82030FF2B04D068344C45B1
:108DB000DAD14FF000084046BDE8F883FEF7C6FE62
:108DC000180200202DE9F74F99460023CDE9003322
:108DD00005461446036011B16846FFF783FF2CB1C6
:108DE000214B0193214601A8FFF761FFDFF87C804A
:108DF000DDE900AB00244FF0FF364746D8F83C31A0
:108E00002BB9264608F12408BCB90124F6E75345DE
:108E100002D0BAF1000FF5D1D8F840315B4502D04D
:108E2000BBF1000FEED1B9F1000F0AD1644204F09A
:108E3000240404F59E743C442C60304603B0BDE825
:108E4000F08FD9F80010D8F854210B7803F00F03F5
:108E50009A42D7D1002AD5D0043108F5A47011F078
:108E6000DFFE0028CED1E1E7240300201802002015
:108E70007FB51B4EB6F900407CBB1A4B1A481B4D00
:108E8000CDE901431A4B0093062223464FF48B6130
:108E9000FEF74AFD30802846D022214640F8084B94
:108EA00011F0DAF83022214605F1DC0011F0D4F897
:108EB0004822214605F59E7011F0CEF84FF48072DD
:108EC000214605F5C27011F0C7F80BF0BDFFC5F8DB
:108ED000D800B6F9000004B070BD6FF01000FAE7DA
:108EE000F018002091BB0300981400201802002005
:108EF000F18C0200064BBFF35B8F53E8000F421C5E
:108F000043E800210029F8D1BFF35B8F80B270479E
:108F1000F002002008B503690BB1FEF717FE064BFF
:108F20005A685860C36802610BB9044BC360436957
:108F30000BB9034B436108BD18020020798B020076
:108F4000598A02002DE9FF47DDE90C6905460F4605
:108F500090461C4626B133782F2B01D0FEF7F6FD44
:108F60002F60FFF7C7FF824634B30BF06DFFCDE9EA
:108F7000004AADF80C00022303AA0121286809F079
:108F800074FA4246044603463946284609F0CEFAAA
:108F9000002C0CDD5EB1B9F1000F08D02F23009337
:108FA00032464B460B21284609F04CFB044604EAA6
:108FB000E47004B0BDE8F087CDE9004023462246C6
:108FC0002146DBE72DE9F04F8FB005780393894602
:108FD0000021CDE90511189B8046C5F30115924685
:108FE0000AB9FEF7B3FD9DF86820012A4ED8012288
:108FF0008DF81420764A069213B9002D40F0DE80D9
:10900000744F189301213846FEF7DEFABE68189BAC
:109010003EB13A6F22B13846FEF70CFB002637E02E
:109020000126682202FB06727442536304F068044E
:10903000199B93630221916004F11C0253463A4448
:109040000AF1180C18685968174603C708336345B6
:109050003A46F7D105A903C95E4F682306FB0332E0
:109060003A4482E8030045B1012D00F09480682362
:1090700003FB067300259D6037E07343B9F1800F51
:109080003B4409D938469D60FEF7D4FA6FF01506C7
:1090900030460FB0BDE8F08F1D6197F8843123B1E1
:1090A00097F80432002BE2D10125682303FB067BED
:1090B00007EBC51000F5C2704A464146CBF81000D8
:1090C00011F0A4FADBF81020CBF81490002ACED0CF
:1090D000042240F6B8314FF4FA60CBF80C200BF0C4
:1090E000D7FE01220546CBF808203A48FEF7A2FA3F
:1090F000682303FB0676B368002B8FD008343C440A
:1091000001238DF81430324B0693ACB104F13406D0
:10911000002D56D004F150072F4922463846FFF75C
:109120009BF92E492E4A096830463B46FFF706FA5E
:1091300029463046FFF70CFA07AE1C2200213046C4
:1091400010F08AFF039B6BB1374603F1180C1868C7
:1091500059683A4603C2083363451746F7D10823D6
:109160008DF83430009653464A46414605A8FFF72D
:10917000D7FC061E8CDC4CB12046FFF72BFD1DB141
:1091800004F13400FFF7EEF90023236016F1800F9D
:109190007FF444AF7CE703FB06734FF0FF32DA60E5
:1091A000D8F80000D8F8041004F110033B4403C3BE
:1091B000D8F80800186041F2883596E71D461C462D
:1091C0009EE71C222946304610F046FFB4E700BF58
:1091D0004813002018020020538C02009CE6030074
:1091E00090140020F7B50E46002719461546134681
:1091F00000973246044609F053F900280DDD636DEF
:10920000E78106442D1A6660A58113B1002003B0E2
:10921000F0BD2046FFF798FCF8E74FF0FF30F6E787
:1092200010B50B46802207490446FFF7DBFF0146D5
:1092300020B92046BDE8104009F056BA4FF0FF3083
:1092400010BD00BF101400202DE9F047CA06B8B0C9
:1092500081464AD5002514AF1C222946384603957D
:10926000A84C10F0F9FE01238DF868302E460EABA5
:1092700000930197002303AA02A9484606F05EFE68
:10928000B0F1000831DB0FD008EB0503802B88BF5D
:10929000C5F1800804EB05000299424688BF01260B
:1092A000454411F0B3F9E2E7BC46BCE80F001BAC43
:1092B0000FC408239CE803008DF88430149B042B12
:1092C00084E8030014D19DF854308E49CDF82490E1
:1092D0001BACFF2B08BF44462A46012322A88DF869
:1092E000203008F0C4FF002804DA38B0BDE8F08769
:1092F000FEF72CFC229A137803F03003302B56D162
:1093000051880EA8FFF7D6FB054628B13430FFF789
:1093100029F92846FFF777FC229B0EA906A8B3F887
:109320000280FFF7DFFC069D002D40D07648D0F884
:109330003C1198FA98F2002392B2079329B1A942FE
:1093400003D1B0F85011914209D0D0F8601169B141
:10935000A9420BD1B0F87431934207D101235B428B
:1093600003F0240303F59E7303440793DDF81C8088
:10937000B8F1000F1BD04FF000094B46D8F804207D
:10938000C8F8009049460AA8FFF71CFD0A9B1BB9C4
:10939000D8F80430C3F8009000231A46C8F80490A7
:1093A000294607A8FFF70EFD079B03B92B602299FA
:1093B0004A784FEA5218B8F1020F20D01AD8B8F103
:1093C000000F92D10B78002A6ED113F0300FC3F347
:1093D00001154ED10321229A137823F0300343EA7A
:1093E000011323F00F030021137051700EAB009492
:1093F00004226BE1A8F10403012B3FF676AF11F8CC
:10940000042B0EA802F00F02FFF7A6FC229B0546D4
:10941000002800F062811A7812F0300FC2F30113B5
:1094200000F05981013B012B3FF65FAF4FF0FF3752
:10943000AB6C1BB105F13400FFF794F8002E0CBFA4
:10944000032306232B60EB6A379E1BB10EAA22A9C9
:10945000284698472846FFF7BDFB013602D0B8F1F1
:10946000020F01D000232B6001373FF43EAF0221F1
:10947000B1E7022D7FF439AF49880EA8FFF71AFB38
:10948000044600283FF431AF436801333FF42DAF69
:10949000C36A0560002B7FF428AF3430FFF762F811
:1094A0002046FFF7B0FB20E79B063FF51EAF26B135
:1094B0008D2122A8FFF7B4FE7CE0DFF84C80CDE9D7
:1094C0000466CDE90666D8F804504FF0020955B994
:1094D000B9F1010F3CD0B9F1020F3BD0B9F1000F47
:1094E00017D0A021E5E76B690A9622AA0AA92846A7
:1094F0009847022801D12D69E9E7012806D12D6995
:109500008146E4E710140020180200200028E8D16A
:109510000A9D294607A8FFF75DFADDF8DC90B9F14E
:10952000000F40F09F8022AB4A460EA906A8FFF725
:1095300049FCDDE9063A0646BAF1000F3ED05BB1C0
:109540009A4515D0CDF818904FF0FF3337930FE0C0
:109550008521AEE78421ACE79AF81C30012B2FD18E
:10956000DAF800100EA80EF02DFB48B3CDF818A0C5
:10957000069B8BB1229F9D603A78DDE9080102F0DD
:109580000F0203F11C069A6186E8030022B1391D1F
:1095900003F10C0011F03AF80EABCDE90B340123C6
:1095A0000A950D93AD6852490AAB802222A8A847BC
:1095B000002896DB00283FF498AE84E0002BD7D13A
:1095C000379B0133D4D0002EBEDBBAF1000FBBD1E4
:1095D0000EA904A8FFF786FB049B33B90028A1BF9E
:1095E000182303FB0080DC300490424B0593214696
:1095F00005A8FFF75CFB059B3BB90028A1BF18231A
:1096000003FB008303F586730593049A002A9BD01D
:10961000DDF814C0BCF1000F96D00DF13809964664
:109620004B4603CBBB42CEF80000CEF8041099465F
:109630000EF1080EF4D1A646674604F118097346E8
:1096400003CB4B45386079609E4607F10807F6D199
:109650002423734303F59E7141444344C3E94F2CD3
:10966000069185E7B9F1010F27D122AB00220EA99F
:1096700006A8FFF7A7FB069FDFB100233B601A4651
:109680000EA90AA8FFF79EFB0A9E36B90EA904A8E8
:10969000FFF728FB049B03B11E60002319467A687C
:1096A0000AA8FFF78FFB0A9B0BB97A6813600023A7
:1096B0007B604FF0FF3337936EE7B9F1FF3F3FF424
:1096C0006BAF4FF0FF3000940EAB0246084908A87C
:1096D000FFF726FA09E60227AAE61B7813F0300FF7
:1096E0003FF478AE379B01337FF474AEFDE500BFE5
:1096F0001014002024030020282A2DE9FF410546EC
:109700000F4601D0FEF722FA164B01925C68012346
:10971000ADF80C3000261CB9304604B0BDE8F0812D
:10972000E36823B1002362680293934201D3246962
:10973000F1E72068D4F80C8000EB031001AB75B1A1
:10974000BA1BA919C0470028F1DDBDF80C3023F081
:109750000103ADF80C30029B06440133E3E72A46CF
:109760002946EFE718020020F8B504461E464523B7
:10977000FFF738FD28220C21204608F093FF012135
:10978000204608F0B1FF054630466768A48908F016
:10979000C0FF2822C3B221463846FFF7ADFF284458
:1097A000F8BDF8B5048906460F46154600200DB1F0
:1097B000B54218D132897168002307F0A0FA04F18C
:1097C0003A030344B3F5803F24BF013080B2796887
:1097D00020443A3000232022083180B207F08FFA6B
:1097E000C04380B2F8BD23462A89696807F087FA2A
:1097F000AB682D6823449CB2D9E72DE9F8430E46A7
:1098000081460321304604F059F9044608B9FEF7B1
:109810009DF9022104F052F907460028F7D0A36809
:10982000032B05D830460021BDE8F84304F04EB9BB
:10983000014632462046D4F80480FFF7B2FF0028E4
:10984000F0D198F80050892D0FD8842D11D8802D93
:1098500016D098F80010334640F20122032002F09F
:10986000A3FD0028DED0BDE8F8836335EDB2012DFD
:10987000EFD8A36879684246484601F05FFDE8E703
:10988000238979684246484600F050F8E1E738B548
:109890000D46144600211A46032304F05BFA28B152
:1098A000436800221D705C709A70DA7038BD10B584
:1098B000044660B190F90C30032B0BD10268FFF71E
:1098C00070FF50B1636840BA5880002010BD6FF03F
:1098D0000D00FBE76FF04C00F8E76FF00100F5E7D3
:1098E0004269013201D00FF0ACBD83685B68184754
:1098F0002DE9F041DDF81880154600220E461F467E
:10990000014608F108031046FFF7C1FF044650B1B5
:10991000406876BA6DBA8680C58027B1424639461E
:10992000083010F073FE2046BDE8F08173B506469E
:109930000C46002A3ED0072B3CD99188D088083BA2
:1099400040BA49BA009389B202F1080382B2812079
:10995000FFF7CEFF054668B3237EFF2B04F1080214
:1099600014BF04F11801002100F001FC044610B9F5
:109970000146284609E000231A461946184603F016
:109980007FFD054630B90146204602B0BDE8704073
:1099900004F09CB843680EB1B6F972615E80064966
:1099A0002C602B4640F20222022002F0FDFC014610
:1099B0000028DED002B070BD0000FFFFF7B5099DA2
:1099C0000C4611461A464FF6FB739D4207464AD88D
:1099D000009500238020FFF78BFF002846D0224609
:1099E0000021466800F0C3FB044630B9214808F066
:1099F0001DFB0025284603B0F0BD43689DF82020DC
:109A0000DA7167B100231A461946184603F038FD8B
:109A100030B34368B7F872215A8004600446164B8D
:109A20001868FFF75DFF032D89BFB0600836043D5D
:109A30000C3600239D42DAB20FD11049234640F282
:109A40000222022002F0B0FC0028D2D16FF00805FB
:109A50000021204604F03AF8CCE7F2540133E9E75C
:109A60006FF00B05F4E76FF01505C3E76FF00B051A
:109A7000C0E700BFA9BB0300A0E603000000FFFF92
:109A80002DE9F0471F46224B0546186816460C463E
:109A9000FFF726FF02218146284604F00FF8032134
:109AA0008246284604F00AF88046BAF1000F2BD00F
:109AB00050B3DAF80400083002F0DDF8D8F80410EA
:109AC000032C01F1080C1CD98B68043CA9EB0302A0
:109AD0000C310B190C469C4202D14FF0FF310AE0C9
:109AE0000134601A013814F801ECC0B28645F2D096
:109AF000A4EB0C0101393B462846B446BDE8F047CB
:109B0000604761460022E4E76FF01500BDE8F0878A
:109B1000A0E60300002103F0D9BF000008B5044906
:109B2000102211F07DF8B0FA80F0400908BD00BFA6
:109B3000F2DD030010B50A490822044611F070F85E
:109B400048B12378FF2B08D1607800F00F00831E06
:109B50005842584110BD0120FCE70020FAE700BF41
:109B6000E2DD030070B51E46CBB200211546024669
:109B7000084603F085FC044620B92846FFF7CAFFD3
:109B8000204670BD43681E710560F9E738B50B6863
:109B90000C46054608B9FDF7D9FF4A68B0F87211BE
:109BA000518000224BB9B5F8A030934209D220462B
:109BB0007A21BDE8384003F089BF99681B680A44E0
:109BC000F0E7284602F004FE60B10B49234640F25C
:109BD0000222012002F0E8FB68B92046BDE83840C7
:109BE000FFF798BFB5F9720140F20222214602F058
:109BF000D0FB0028F1DD38BD0000FFFF2DE9F84360
:109C00000E46D1E9001405460A4600232ABB5BBA7A
:109C1000A380A379FF2B02D119BB3B23A371E37966
:109C200013B94DBB4023E37104F108073E491022EC
:109C3000384610F0F5FF04F11809804678BB484615
:109C4000FFF76CFF0246D0B110224146384610F0B3
:109C500003FA0123E37534464FE090681268034429
:109C6000D4E70B7B023BDBB2022BD6D82F4AD35C66
:109C7000A371FF2BD3D1D0E795F87031D3E74946D4
:109C8000284602F0DBFF03460028E4D000F1100272
:109C900053F8041B47F8041B9342F9D1DBE728462D
:109CA00002F0BBFD4846FFF739FF98B10024284673
:109CB00002F0BAFD002CCED00321304603F0FEFEA8
:109CC00028B143681B7803F0FD03852BC3D06FF0E8
:109CD0007C0022E03946284602F09CFF0028E5DBA4
:109CE0002844047D04F01F04103C18BF0124DEE763
:109CF00004F04CF898B12060044694F90C30022B23
:109D000002D120680028F3D13146204603F0C5FE79
:109D1000002807DA831C08BF0020BDE8F8836FF035
:109D20000B00FAE70020F8E702DE030094DD0300F1
:109D300080B590B01022002105A810F08DF9AD4B30
:109D40000693AD4BAD481B88ADF820300821FDF7D8
:109D50002BFC05A9022003F007FEA94F40F20523C2
:109D6000ADF80E3001A8FDF708FCBDF80620B2F5ED
:109D7000017F2CD840F202239A4200F2B48140F2D3
:109D800001218A4239D09A42ECD1029E96F90C30D8
:109D9000013340F0EF8074688CB3B4F9020002F034
:109DA00031FD0546304694F8048003F0EFFF08F0DB
:109DB0003F08014600283DD003F0B2FE064696F962
:109DC0000C30022B00F0DA80162130464DE0A2F56F
:109DD0009F43403B9BB2152BC4D88A490120984031
:109DE0000140002940F08781152B00F08981142B58
:109DF000B8D1029801F048F9B4E7029E0EB9FDF718
:109E0000A5FE4FF0FF31304603F058FE054638B14D
:109E10004368002BF3D0B3F9020002F0F3FC0546CF
:109E200073683BB1B268272A04D91B7803F0F003AA
:109E3000602B01D030460EE0304603F0A7FF044609
:109E40000028F7D00222282103F0C2FF0023237349
:109E5000034618B92046FFF75DFE83E7D0F804807B
:109E600098F8072022B97421204603F02FFE79E7E5
:109E7000B8F8041098F806608AB249BA89B20AB9EB
:109E80003B2EE7D19C42A2685AD08A4257D920463D
:109E900004F006F808F118084046FFF73FFE70B9D5
:109EA0004046FFF747FE08B1002D58D1404602F06A
:109EB000A1FF0546B0FA80F040090028CAD1292E3A
:109EC00051D03A2E51D0A6F11102534253419B007A
:109ED00023733146022003F0C8FD002801DC3A2E2E
:109EE00045D10121204603F0A9FE4FF00108414968
:109EF00094F90C00234640F2012202F055FA10B901
:109F00002046FFF707FEB8F1000F10D03A2E03D11C
:109F10000121204603F092FE234640F20122314601
:109F2000022002F041FA10B92046FFF7F3FD3A2E65
:109F30007FF418AF21462846FFF75FFC12E723465F
:109F400000209A68104493F90C20022A02D01B6862
:109F5000002BF6D1283888429CD2162184E740464F
:109F600002F048FFA6E70223B2E70323B0E74FF071
:109F70000008BCE74FF00008454620E77068102253
:109F80003946183010F04CFE00283FF41DAF304623
:109F900003F0FCFE044600283FF44CAF4668337ED5
:109FA000FF2B54D185BB02F020FC00283FF452AFB8
:109FB000411E204603F042FE48F04008284602F0C9
:109FC00012FC054600283FF4CDAE204603F0DEFE2D
:109FD000064600283FF43EAF01462846FFF70EFE36
:109FE000002827DAB4423FF435AF3046FFF792FD40
:109FF00030E700BF0000FFFF080D0020F41800202C
:10A0000002DE0300EFFB060001462846FFF7F6FDDF
:10A010000028FFF61FAF002148F040032246084603
:10A02000FFF7A0FD014600283FF49CAE2846FFF74D
:10A03000ADFD97E60021084643463246FFF792FD04
:10A0400001460028BAD02846FFF7A0FDB6E718362B
:10A05000304602F0CFFE8542814606D03046FFF7FB
:10A0600069FD002818BF4FF000093046FFF756FD84
:10A0700010B9B9F1000F17D021464846FFF7BEFDD1
:10A080000028FFF6E7AE204603F062FD00287FF4CB
:10A09000E1AE1D49234640F20122022002F084F97C
:10A0A00000287FF45FAED5E609AB2246294630464C
:10A0B00001F05CF80028FFF655AEBDF83C00C0F397
:10A0C000041002F09FFB054600283FF498AE21469D
:10A0D000FFF794FD0028FFF6BDAE9DF83E10434605
:10A0E00022460DA89CE76FF0850303A901A80493FD
:10A0F000FDF71AFA36E60298114601F0DDFB31E66B
:10A10000029800F0EBFF2DE60000FFFF1FB50A4CA0
:10A11000B4F900305BB9094A0948CDE90132094A6E
:10A1200000924FF470710422FDF7FEFB2080B4F919
:10A13000000004B010BD00BFF2180020C3BB030034
:10A1400034190020319D020008B5022103F0B6FC4D
:10A1500060B143680BB9FDF7F9FC8268272AFAD988
:10A160001A7802F0F002602AF5D1184608BDF8B559
:10A170000C46174602232822002103F0EBFD064679
:10A1800008B3456805F10800FCB1214604F110034D
:10A1900051F8042B40F8042B9942F9D105F118002D
:10A1A000C7B1394607F1100351F8042B40F8042BCE
:10A1B0009942F9D1602200232A70FF226B70AB70A4
:10A1C000EB70AA71EB713046F8BD102221460FF0FA
:10A1D00043FFE3E7102239460FF03EFF012385F8E5
:10A1E0002730E7E7F8B5044615460E4609B90020C2
:10A1F000F8BDD1F8A470FA04F9D51949082210F075
:10A200000FFD38B12378FF2BF1D1637803F00F03F2
:10A21000022BECD1FB0701D4FDF798FC96F87101F5
:10A2200005F1100204F1080106F0E2FF10F0FF0052
:10A23000DDD0A8762B4604F1100254F8041B43F835
:10A24000041B9442F9D1B6F872311B0103F4F87380
:10A2500043F4806343F006032B830120C8E700BF6B
:10A26000E2DD03002DE9F843054602F0C3FD044694
:10A27000002859D002F0D1FAB4F97211002000F090
:10A280007BFB002843D00368B4F972119A8EC2F3A5
:10A290000412914201D0FDF759FC043318462A46B6
:10A2A000214600F0FCF82946204602F0B3FC0028C5
:10A2B000F1DB21180B7D03F01F02102A31D003F0CF
:10A2C0000702013A012A27D80133D4F898800B7588
:10A2D000050105F17806154B1548B3F900902644A1
:10A2E0003146FEF7C1F905F1160760190023C0E9F0
:10A2F0001E38274444F6CF73A0F88230C0F884702B
:10A30000A0F8809031460A48FEF778F904E084F816
:10A310009C00204601F08AFA2046BDE8F84302F08E
:10A3200083BA4EF66028D3E7BDE8F883F218002020
:10A33000F41C00202DE9F3470D461F46044608B9DA
:10A34000FDF704FCD0F8A430D90403D4042002B0F3
:10A35000BDE8F08779780229F8D11278882AF5D1FA
:10A36000DB07F3D590F8CC206B4600F1C40102F076
:10A37000F9FF0828EAD1DDE90002B968FB689A42D2
:10A3800008BF8842E2D1BB78012B41D0022B45D0D7
:10A39000CBBB05F118012046FE8802F03BFC0028EB
:10A3A0001FFA86F8D2DBB8F5807F2ED076BAB6B227
:10A3B0004EF660235E43A6F56A46603E221805010C
:10A3C000137D254823F01F0343F0100305F178089F
:10A3D0001375A044214B4146B3F900A005F11609BD
:10A3E000FEF742F960190023C0E91E36A14444F685
:10A3F000CF73A0F88230C0F88490A0F880A04146C6
:10A400001548FEF7FBF8B878A1E747F23056D5E7D4
:10A4100005F11801204602F0B7FDF4E7B4F9721116
:10A4200005F1080000F0A8FA0646002888D000F0E0
:10A430006BFA002000F08AFA28B984F89C002046C4
:10A4400001F0F4F9DFE73368002B3FF479AF05F151
:10A450001800FFF707FFD6E7F41C0020F2180020D1
:10A4600013B58A784878412A34BF022303239842DF
:10A4700012D1CC88C87864BAC0F30013A4B2009398
:10A480000831234600F00F0003F032FF4EF6602340
:10A4900003FB04F002B010BD4FF0FF30FAE7F0B557
:10A4A000074685B015461E460C4609B9FDF74EFB1A
:10A4B000B1F97211002000F05FFA45B3D4F8A4306E
:10A4C000DA0424D518B30068B4F97221838EC3F37B
:10A4D00004139A421BD13146043006F053FCB0B14C
:10A4E000D4F8A430DB0710D594F8CC2002AB04F1EB
:10A4F000C401204602F036FF082806D1002302AA34
:10A500000F21184605F053FB10B905B0F0BD00202F
:10A51000009033462A462146384601F0EBFDF4E729
:10A520002DE9F04117469846054608B9FDF70EFBA0
:10A5300001F10806B0F97211304600F0C3F8044684
:10A5400028B190F8363013F0010F08BF0024D5F879
:10A55000A430DA07EAD595F87101414606F05EFEAF
:10A5600000281ADB74B9B5F972110322304600F0E5
:10A57000FBF8044688B13B78872B02BF838E23F01B
:10A580000803838694F83630DB0706D53B78862BA4
:10A5900005D1A38E43F00803A386BDE8F081872B85
:10A5A000FBD0A38E23F00803F6E730F9081FFCF771
:10A5B0005FBF000008B50449102210F031FBB0FA6B
:10A5C00080F0400908BD00BF02DE0300054A1068A4
:10A5D00038B10368984219BF1A68026000211160FF
:10A5E00018467047E41E002090F8361011B9382242
:10A5F0000FF032BD704770B5044610460E46154642
:10A60000FFF7F2FF4CB123462A1D04F1100153F865
:10A61000040B42F8040B8B42F9D11F2E01D9FDF730
:10A6200095FAAB8E23F4F87343EA0611A98670BD40
:10A6300001490248FEF738B8ABA50200F41C00201F
:10A640000148FDF701BB00BF101D00200148FDF7C8
:10A65000FFBA00BF101D002070B50F4CA38EC3F3CE
:10A660000413994205460E460FD150B9201DFFF73D
:10A67000A1FF50B12846084A3146FFF7BCFF064803
:10A6800070BD211D06F07EFBF3E794F83630002BF9
:10A69000F0D00020F4E700BFAC1E002028B1383015
:10A6A000064B984203D3002070470548F8E790F81E
:10A6B0003620002AF8D13830F3E700BFE41E00202E
:10A6C000AC1E002008B50B46014638B9FDF73EFA2E
:10A6D0000A4806F057FB78B109480EE0084A92F89C
:10A6E000360048B1928E12F4F87FC2F30410EFD016
:10A6F000002BEDD08342EBD0002008BDB01E00201F
:10A70000AC1E00207047000010B590F8363023F0E2
:10A71000010300F1240180F8363004461048FDF7AB
:10A72000A3FF10490A6822B113689C4206D1FFF7C3
:10A730004DFF2046BDE81040FFF756BF13461B688B
:10A740001868844202D09A42F9D1F2E7002BF0D087
:10A7500022681A600A68944208BF0B60E9E700BFEC
:10A76000F41C0020E41E00202DE9F843884607462B
:10A7700008B9FDF7EBF902F007052B1F022BF8D9FA
:10A78000FFF76AFF002839D1FFF720FF814660B349
:10A79000284E044694F83630012B29D8A38E03F4B2
:10A7A000C0632BBB2046FFF7AFFF38462246414629
:10A7B000FFF721FFA38E2B43A386012384F83630B5
:10A7C00020463368B3B11B68236033681C60346073
:10A7D00060B9FFF7FBFE81450446DBD133685BB10E
:10A7E0001B6803603368186034600020BDE8F8839C
:10A7F0000020E6E72460EAE72060F5E790F83630CD
:10A80000DA0708D4828E22F00702154343F00103D1
:10A81000858680F836300368002BE7D1054B1A682F
:10A820002AB1126802601A6810601860DEE70060E2
:10A83000FBE700BFE41E002070B50C46054600B1E2
:10A8400009B9FDF783F90A46031D00F1140153F815
:10A85000040B42F8040B8B42F9D1A88E2083C0F37D
:10A86000041001F0CFFF104906460822204610F0E0
:10A87000D7F938B12378FF2BE3D1637803F00F03C6
:10A88000022BDED1002EDCD0D6F8A430DB0705F198
:10A890000C0104F11002D4D596F8710106F0A8FC61
:10A8A0000028A8BFA07670BDE2DD0300F8B5154E04
:10A8B000346807460D4694B1A38EC3F3041399423E
:10A8C0000BD1211D06F05EFA38B194F8363043F012
:10A8D000080384F836300B48F8BD0020FCE7FFF78A
:10A8E000BBFE024630600028F7D029463846FFF705
:10A8F00082FE326892F8363043F0080382F8363030
:10A90000E9E700BF181D0020036810B504468BB1AD
:10A91000011D0C48FDF7A8FE206890F8363023F0A2
:10A92000080380F83630FFF75FFE1422002120462E
:10A930000FF092FB044B1A68A24204BF00221A6077
:10A9400010BD00BFF41C0020E81E002028B1143008
:10A95000074A904203D3002070470648F8E703688F
:10A960001BB193F83630002BF6D11430F1E700BF5D
:10A970002C1D0020181D002010B520B10D4B1C68A7
:10A980002CB900200FE00029F8D1FDF7DFF821B144
:10A99000A38EC3F304139942F3D128B994F8363047
:10A9A0001B07F2D5034810BD211D06F0EBF9002866
:10A9B000E7D0F3E7181D002010B5124C2168B1B1A3
:10A9C0000B689B8E03F00703013B012B0DD8002081
:10A9D000FFF7BCFF68B90846FFF7B8FF01B110B92F
:10A9E0000020FFF7B3FF20600146084610BD08466F
:10A9F000EEE703689B8E03F00703013B012BF2D8BF
:10AA0000E6E700BFE81E002038B50C46054610B149
:10AA1000036803B109B9FDF799F810220021204617
:10AA20000FF01AFB114A12680023AA4284F8203062
:10AA300008D12B689B8E03F00703013B012B94BFC9
:10AA40000023012384F821302B6804F110011A1D22
:10AA5000143352F8040B41F8040B9A42F9D12B68D5
:10AA60009B8EC3F30413638438BD00BFE81E00202F
:10AA70002DE9F84F054689461F4690463AB11046E3
:10AA8000FFF798FD044610B97B1E7F2B01D9FDF717
:10AA90005DF8DFF8E4B082469BF82420DBF8006024
:10AAA000DAB9002C08BF5C460AF1010ABAF1080FB6
:10AAB0000BF1300BF0D174B12368002B45D149461E
:10AAC0002846FFF7C9FD0146206000283DD130220D
:10AAD00020460FF0C1FA00242BE09BF82520974276
:10AAE000E2D141460BF1040006F062F98742DBD85F
:10AAF000002ECCD0B28EC2F304129145D4D10436CC
:10AB00003046FFF757FDB8B13DB105F1100255F8D9
:10AB1000041B46F8041B9542F9D1302202FB0AF2CD
:10AB2000154B995891F8362042F0400281F83620B2
:10AB30005C462046BDE8F88F002DB5D0314628464A
:10AB400006F020F90028AFD0DFE722684946284602
:10AB5000FFF751FD2046FFB250F8042B92F8363033
:10AB600043F0400382F8363041463A4606F03FF95A
:10AB700084F82570DDE700BF2C1D002010B590F88B
:10AB800024300446FBB90068D0B920463022BDE825
:10AB9000104000210FF060BA3033013A04D09C42DB
:10ABA000FAD019688842F7D1074A9342EDD390F85A
:10ABB000363023F0400380F83630FFF715FDE4E728
:10ABC000024B0922E9E710BDAC1E00202C1D00201D
:10ABD00028B13030064B984203D300207047054817
:10ABE000F8E790F82420002AF8D13030F3E700BFCE
:10ABF000AC1E00202C1D0020054B984206D303F507
:10AC0000C07398422CBF002001207047002070477D
:10AC10002C1D002038B50B4610B1026802B109B9ED
:10AC2000FCF794FF021D00F1140452F8045B41F894
:10AC3000045BA242F9D190F8252083F8202000215E
:10AC400083F821100268948EC4F304145C8490F895
:10AC50002400042803F1100004D1BDE8384010227C
:10AC60000FF0FAB9131D143253F8041B40F8041BFB
:10AC70009342F9D138BD00002DE9F8431646074646
:10AC800000B10AB9FCF762FF184D0024A04605F593
:10AC9000C07995F824305BB13946281D06F088F854
:10ACA000404505D995F8253083429CBF80462C4607
:10ACB00030354D45EDD134B194F82430042B0FD10B
:10ACC000E38CDB070CD4FFF777FE18B944B96FF0BB
:10ACD000710003E03146FFF797FE0020BDE8F883DE
:10ACE00031462046FFF796FFF7E700BF2C1D0020F6
:10ACF00010B5044600F114010648FDF7B5FC94F8C0
:10AD0000243023F0040384F824302046BDE81040AA
:10AD1000FFF734BFF41C00202DE9F843044600F18E
:10AD200014011748FDF7A0FC2368988EC0F30410A7
:10AD300001F068FD0546D8B100F1160604F10409DA
:10AD40004946304694F8257006F032F805F1260899
:10AD500087424946404694BF94F82570002606F085
:10AD600027F8874209D91EB13146284602F00CF96E
:10AD70002046BDE8F843FFF7BBBF4646F4E700BFF7
:10AD8000F41C00202DE9F8431F4613460A460146ED
:10AD90000020089EFFF76CFE044600283DD090F886
:10ADA0002430B74243F0040380F8243001D2FCF78A
:10ADB000CDFE07EA0605681C36D01D4B18684369AE
:10ADC00001332DD00EF03DFB711C05461CD0194BF4
:10ADD0001948B3F9009004F114084146FDF744FC0A
:10ADE0000023C4E9053644F6CC731348E383246298
:10ADF000A4F81C904146FDF701FCB21C04D0731965
:10AE0000013308BF01362E44FB1C0FD87B190133D8
:10AE100008BF01373D44C4E90A562046BDE8F8831F
:10AE200083685B689847CFE72E46F4E73D46F2E734
:10AE30009CE60300F2180020F41C002010B50A4B19
:10AE40009B690246002013B94FF0FF3010BD5C68CB
:10AE500020445C898C4204D1002AF7D0DC689442FB
:10AE6000F4D01B68EFE700BFF41C0020F0B50446E7
:10AE700085B00E4617460021102268460FF0ECF808
:10AE8000D4F8A430D90406D4B4F97211234807F0D9
:10AE90008DF805B0F0BDDA07FBD594F8CC2002ABF5
:10AEA00004F1C401204602F0DBFA0028F1DB3A4647
:10AEB0003146684605F09BFF6946204601F0AAFE30
:10AEC000051E29DA07233A466946204601F006FEA8
:10AED000051EDEDB0127D4F8A430DB04D9D51049E8
:10AEE000082230460FF09CFE38B13378FF2B0BD18F
:10AEF000737803F00F03022B06D16219137D23F040
:10AF00001F0343F010031375002FC2D004EB05108C
:10AF10001630FFF7A7F9BCE70027DCE7C8BB030042
:10AF2000E2DD030010B50A49082204460FF078FE5E
:10AF300048B12378FF2B08D1607800F00F00831E02
:10AF40005842584110BD0120FCE70020FAE700BF3D
:10AF5000E2DD0300002102F0B9BD08B5FFF7B2FB46
:10AF600028B190F8363013F0010F08BF002008BD5B
:10AF7000F8B50446174606981A460D46A9B191F849
:10AF800071310A2B11D1134604F1100154F8040B4E
:10AF900043F8040B8C42F9D1B5F872311B011383CD
:10AFA0000023937601263046F8BD78B9294620461D
:10AFB000FFF718F906460028F4D1D5F8A41011F4CB
:10AFC000805107D03846FFF7C5FFECE71146FFF781
:10AFD00033FCE7E70DB1B5F9721102222046FFF705
:10AFE000C3FB0028EED0002FDDD07621384602F0DA
:10AFF0006DFDD8E738B505685DB195F836301B07AB
:10B0000007D5FFF781FC00242046FFF7E1FD044649
:10B0100000B938BD23689D42F6D1FFF7AFFDF3E7D5
:10B020002DE9F843DFF834801F460B4B14460546E4
:10B030000E4640461146B3F90090FDF715FB00237C
:10B04000C4E900376681E560A4F8089021464046CF
:10B05000BDE8F843FDF7D2BAF2180020F41C002036
:10B0600038B5084CFFF7ECFAA16929B10D68204604
:10B07000FDF7FAFA2946F8E7FFF7DAFABDE83840B3
:10B08000FFF7E4BAF41C002038B5044608B9FCF711
:10B090005DFD002501F0C1FB0E49A4F89C5020463F
:10B0A00001F0BFFE402220460B49FFF7DFFE4FF4C0
:10B0B0007A71284609F0ECFE04F16802034644F672
:10B0C000C3712046FFF7ACFF2046BDE8384001F0D1
:10B0D000ABBB00BFC2DD0300E2DD030038B50446B0
:10B0E00008B9FCF733FD01F098FB04F11605104890
:10B0F00004F16801FDF7B8FA2846FFF713FF18B10D
:10B100002946204601F040FF04F126052846FFF7B6
:10B1100009FF18B12946204601F036FF20460549AF
:10B1200001F0D5FE2046BDE8384001F07DBB00BFF0
:10B13000F41C0020C2DD030010B5044608B9FCF77A
:10B1400005FD01F06AFB4FF47A73C4F8983094F867
:10B150009E3043F00103204684F89E3002F020F92F
:10B160002046BDE8104001F05FBB00002DE9F0472C
:10B170000C468CB00546084617469A4601F04DFB32
:10B18000FFF75EFA002C3ED0B4F972112846FFF7A3
:10B19000E4FE0646002838D0B0F83480C8F304181E
:10B1A0002846FFF7BFFE00285FD1B8F1000F5CD042
:10B1B000204601F039FB404601F024FB0446FFF72E
:10B1C00045FA204601F029FBFFF73AFA002C4ED051
:10B1D000B4F972112846FFF7C0FE064600965346A2
:10B1E0003A4621462846FFF7C3FE00280CBF6FF001
:10B1F00075060026FFF72AFA204601F015FB3046B7
:10B200000CB0BDE8F0872146C0E72846FFF78AFE6C
:10B21000B0460028C4D1B1464846FFF7D9FC814664
:10B2200078B9B8F1000F2CD098F824305A0728D5F7
:10B23000B8F82630DB0724D5D8F80030B3F83480CE
:10B24000ACE709F10401284605F0B2FD99F8253074
:10B250009842E1D3B8F1000F05D098F825209A4222
:10B2600038BFC846D8E7C846D6E7002CB6D11FB9C4
:10B270006FF075060024BDE77621384602F026FC03
:10B28000F6E703AA39462846FFF7F6FC2A490646A0
:10B29000102207A80FF0C4FC00284AD12846FFF767
:10B2A00041FEB8B91FB17221384602F00FFC6FF0B1
:10B2B00071069FE7B4F972219A4208D0204601F046
:10B2C000B3FAB4F97221BDF82E309A4213D1B4F911
:10B2D00072111FE0002EE5DB07AA05F1100C2868AB
:10B2E0006968134603C3083565451A46F7D1BDF8AA
:10B2F0002E30002CDED1BDF92E0001F083FA044679
:10B30000FFF7A4F9204601F088FAFFF799F9002C1D
:10B31000DDD1214607A8FFF720FE534600903A46AC
:10B32000214607A8FFF724FE002808BF6FF0750626
:10B3300060E7002EDBDAB5E702DE03002DE9F04F0F
:10B340000F4689B015469846044608B9FCF7FEFB3F
:10B3500001F063FAFFF774F92B78872B00F0548122
:10B36000882B00F01D82862B40F0AB8107F1080985
:10B370004846FFF7D7FD002800F0A381FB79FF2B9B
:10B3800040F09F816B78002B40F09B81B8F10F0F4C
:10B3900040F29781D4F8A430DA0407D4EB885BBA82
:10B3A0009BB242F22832934200F28B81A8F1100B3B
:10B3B00005F1100632465B46002B59D1B5F80680E0
:10B3C000B4F972111FFA88F34846002B5CD0FFF7DE
:10B3D0006DFA8146002800F0748198FA98F84FF4CD
:10B3E0007A731FFA88F803FB08F84346021D44F6F7
:10B3F000CD71FFF715FE2B790BB184F87031EB6836
:10B4000013B11BBAC4F89830B9F1000F13D0D4F8B7
:10B41000A430DB040FD5237D13F0EF0F03D004F12C
:10B420001600FEF71FFF637D13F0EF0F03D004F14A
:10B430002600FEF717FFBBF1000F2FD1B9F1000F67
:10B4400000F03F8104F16805A2482946FDF70CF998
:10B45000D4F8A430DE0440F134814FEA980303EBC2
:10B4600043032A4644F6C3712046FFF7D9FD28E17D
:10B470009845C0F026815178002900F02281A3EB85
:10B48000C10302EBC10297E7FFF776FA08B1FFF7B5
:10B49000B1FD4FF0FF384FF00009ACE73378052BD2
:10B4A0001BD009D8012B11D0032B24D07378ABEB20
:10B4B000C30B06EBC306BEE7222BF7D13146284665
:10B4C000FEF7CEFF804528BF8046EFE733462A4689
:10B4D00039462046FFF724F8E8E77378012BE5D1D9
:10B4E0002B78862BE2D173681BBAB3F5A06FDDD33E
:10B4F000A4F8A030DAE773680493B368059373780F
:10B50000042B05D04FF0FF33984528BF9846CDE770
:10B510002B78862BF6D106F1100318460293FFF71D
:10B5200001FD0028EED1049B059A1BBA92FA82FA1B
:10B530005345E7D3D4F8A410F278C80401D5110616
:10B54000E0D4500606D5B278029903932046FFF75F
:10B550008DFC039BF2783F2AD4D9B27803927268AB
:10B56000E2B9924613E09AF8243059070FD59AF8B9
:10B570002530039A93420AD102990AF1040005F09A
:10B5800017FC039B984202D35046FFF7C5FB504679
:10B59000FFF71EFB82460028E5D1B3E7049A01328B
:10B5A00007D04D4A93429ABF4FF47A7253436FF0DB
:10B5B0000103059A013208D0474A92459ABF4FF4D9
:10B5C0007A7202FB0AFA6FF0010ACDF800A0DDE9F9
:10B5D0000212B4F972010493FFF7D4FB002891D052
:10B5E00096F90320F178049B002ABEBFC28C42F07A
:10B5F0000102C2844A0642BFC28C42F00202C284E7
:10B60000534528BF53467FE7FB79FF2B59D16B7811
:10B61000002B56D1B8F1170F53D92B7AFF2B50D0EE
:10B6200007F108092D49102248460FF0F9FA38B9F8
:10B630002B490D2207F118000FF0F2FA002840D133
:10B6400005F1080B5946204601F0E4FA031E029367
:10B6500037DBA8F1180605F1180A5246334673B9CC
:10B660001E490393102248460FF0DAFA039B78B97B
:10B6700000934A462146584600F098FD21E098453F
:10B680001FD35178E9B1A3EBC10302EBC102E6E796
:10B69000D4F8A430D80705D4B4F97211032248466F
:10B6A000FFF762F8F6B9029B23441B7D990670D51B
:10B6B000B4F972115846FFF750FC054618BBFFF766
:10B6C00049FCFEF7C3FF204609B0BDE8F04F01F08A
:10B6D000ABB800BFF41C00203789410002DE030034
:10B6E000D2DD03009AF80030012B05D153462A46DB
:10B6F00039462046FEF714FF9AF80130A6EBC30640
:10B700000AEBC30ACEE73B7EFF2B1FD194F8CC7027
:10B7100004F1C4013A4606A80EF078FFB7B13246EC
:10B72000394606A800F0DBFC06460028C7D04021B9
:10B730003246584600F072FC074648B14A4600219E
:10B74000FEF715FD804628B93846B8E76021EFE7D7
:10B750003046B4E74368FF22DA7100231A461946DF
:10B76000184601F08DFE064608B94046A7E7436833
:10B77000B4F872215A804FF47A71C0F8008000202A
:10B7800009F086FB05F12402034644F6C2713046F7
:10B790006BE63B7E0096A3F1FF025342534168E7FC
:10B7A000FB79FF2B8DD16B78002B8AD1B8F1170F65
:10B7B00087D92B7AFF2B84D03B7EFF2B03D12B79AB
:10B7C0005B063FF57EAFA8F1180905F11806324671
:10B7D0004B46F3B9B4F9721105F10800FFF7BDFB50
:10B7E000804600283FF46DAFB9F1000F3FF469AF18
:10B7F0003378212B07D1CDE9006833462A463946F4
:10B800002046FEF797FD7378A9EBC30906EBC30644
:10B81000EAE79845FFF455AF517800293FF451AF5E
:10B82000A3EBC10302EBC102D3E700BF38B5044666
:10B8300000F0F3FF44F6C3712046FFF7FFFAD4F897
:10B84000A430DA0423D594F89C30022B42F2107510
:10B850000AD9033B4FF47A6202FA03F31D444EF611
:10B8600060239D4228BF1D46A8420BD9114920469E
:10B8700000F020FD94F89C30092B0BD9D4F8A430AB
:10B88000DB040DD42046BDE8384000F0CDBF4FF4B6
:10B890007A65E9E70133DBB2022B84F89C30EDD8FE
:10B8A0002B4604F1680244F6C3712046FFF7B8FB4B
:10B8B000E8E700BFB2DD0300F8B50D460446FEF729
:10B8C000BFFEA5F59F4142390D2914D8DFE801F0EC
:10B8D000071713131313131313131B69136D354930
:10B8E000234640F20222022000F05EFD18B9092131
:10B8F000204602F0EBF8BDE8F840FEF7A7BE204670
:10B90000FFF794FFF7E72368988EC0F3041000F068
:10B9100079FF05460028EED0274B186843690133AC
:10B920000FD00DF08EFD0646284600F076FFA36A84
:10B93000B3420AD82046FFF7EFF9284600F074FF1B
:10B94000D9E783685B689847EDE7E36AB342F4D8C8
:10B95000271D394605F1160005F02AFA94F825301E
:10B9600083429FBF2B7D23F01F0343F008032B75F9
:10B97000394605F1260005F01BFA94F8253083427C
:10B980009FBF6B7D23F01F0343F008036B75A36A11
:10B9900004F114029B1B44F6CC712046FFF740FBD8
:10B9A000CBE72046FFF726FBA5E72046FEF75AFC2B
:10B9B000A1E700BF0000FFFF9CE6030008B50449B3
:10B9C00010220FF02DF9B0FA80F0400908BD00BF39
:10B9D00002DE0300F8B5069D14461E4680B179B11B
:10B9E000FFF7ECFF1D4B9D429ABF4FF47A735D4306
:10B9F0004FF0FF350EB128B164B96FF0150407E0C0
:10BA00000120EFE7FEF71CFE6FF08504FEF71EFE37
:10BA10002046F8BDFEF714FE20463146FEF746FFED
:10BA20000446C0B10E4B18609DB10E4B061D314649
:10BA30000D48B3F90070FCF717FE0023C4E9013587
:10BA400044F6CD730848E3812461A7813146FCF7B1
:10BA5000D5FD0024DAE76FF00B04D7E73789410002
:10BA6000E81E0020F2180020F41C002038B504461F
:10BA70000D46FEF7E5FD24B11DB12046FFF79EFF00
:10BA800020B1FEF799FF08B1FEF73EFFBDE8384050
:10BA9000FEF7DCBD2DE9F04106460F4698461546F7
:10BAA00002B10BB9FCF752F8106838B92C6820467F
:10BAB000FFF78EF80446E8B9286003E0FFF79CF82A
:10BAC0000028F3D12C682046FEF740FF044668B1F9
:10BAD00020680028F7D027B1838EC3F304139F4258
